:100000000C942A000C94F1160C9424170C94571796
:100010000C9403140C9436140C94FF110C943212AB
:100020000C9465120C9498120C946A0F0C949D0F0A
:100030000C9447000C94E30B0C94490C0C94160C94
:100040000C94711D0C9447000C9447000C944700CD
:100050000C94470011241FBECFE5D8E0DEBFCDBF12
:1000600011E0A0E6B0E0E8E0F1E602C005900D92F4
:10007000A23DB107D9F712E0A2EDB1E001C01D9297
:10008000A735B107E1F70E9403300C9482300C943D
:100090000000EF92FF920F931F937B018C0120E0F1
:1000A00030E040E05FE40E94F50388238CF0C80153
:1000B000B70120E030E040E05FE40E94C1010E940F
:1000C000B3049B01AC01205030404040504806C072
:1000D000C801B7010E94B3049B01AC01B901CA0178
:1000E0001F910F91FF90EF900895A0E0B0E0EBE733
:1000F000F0E00C944B30DC012B01FA019C91923022
:1001000008F439C1EB018881823008F433C194309E
:1001100069F4843009F02FC111969C91119789815F
:10012000981709F428C1A0E6B0E025C1843009F48D
:1001300021C18230A9F4923009F01DC19A01AD01AC
:1001400088E0EA010990AE01E90109929E0181501F
:10015000C1F7E201898111969C918923818308C1AD
:10016000923009F407C112962D903C901397EB0141
:100170008A819B811496AD90BD90CD90DC901797AD
:10018000EC80FD800E811F819101281B390BB90184
:1001900037FF04C066277727621B730B6032710537
:1001A0000CF061C0121613066CF537014801062EDB
:1001B00004C096948794779467940A94D2F721E0C8
:1001C00030E040E050E004C0220F331F441F551FB1
:1001D0006A95D2F721503040404050402E213F21B7
:1001E00040235123211531054105510521F021E01E
:1001F00030E040E050E079018A01E628F72808293C
:1002000019293CC0232BD1F1260E371E350146019A
:10021000062E04C096948794779467940A94D2F734
:1002200021E030E040E050E004C0220F331F441FC3
:10023000551F6A95D2F721503040404050402A2146
:100240003B214C215D21211531054105510521F04E
:1002500021E030E040E050E059016A01A628B728CB
:10026000C828D9280BC0821593052CF01C01AA249C
:10027000BB24650103C0EE24FF24870111969C91E5
:10028000D20111968C91981709F445C0992339F041
:10029000A80197012A193B094C095D0906C0A6016E
:1002A00095012E193F09400B510B57FD08C01182D3
:1002B0003382228224833583468357831DC081E0A5
:1002C00081833382228288279927DC01821B930B4A
:1002D000A40BB50B84839583A683B7830DC0220F2F
:1002E000331F441F551F24833583468357838281E0
:1002F000938101979383828324813581468157813D
:10030000DA01C9010197A109B1098F5F9F4FAF4F72
:10031000BF4328F30BC0918333822282EA0CFB1C7B
:100320000C1D1D1DE482F5820683178383E0808304
:10033000248135814681578157FF1AC0C901AA27F8
:1003400097FDA095BA2F81709070A070B0705695EF
:10035000479537952795822B932BA42BB52B848318
:100360009583A683B7838281938101969383828349
:10037000DF0101C0D201CD01CDB7DEB7E2E10C94BF
:100380006730A0E2B0E0E7ECF1E00C94573069830D
:100390007A838B839C832D833E834F835887E9E048
:1003A000EE2EF12CEC0EFD1ECE010196B7010E943F
:1003B000A4068E010F5E1F4FCE010596B8010E9464
:1003C000A4068A8991E089278A8BC701B801AE010A
:1003D000475E5F4F0E9475000E94CF05A096E6E041
:1003E0000C947330A0E2B0E0E8EFF1E00C945730E9
:1003F00069837A838B839C832D833E834F835887C5
:10040000F9E0EF2EF12CEC0EFD1ECE010196B701A6
:100410000E94A4068E010F5E1F4FCE010596B80103
:100420000E94A406C701B801AE01475E5F4F0E945B
:1004300075000E94CF05A096E6E00C947330A0E210
:10044000B0E0E5E2F2E00C944B3069837A838B8371
:100450009C832D833E834F835887CE010196BE0136
:10046000675F7F4F0E94A406CE010596BE016F5EB6
:100470007F4F0E94A4069985923088F08989823046
:10048000C8F0943019F4823051F404C0843029F457
:10049000923081F480E690E0C6C0923049F420E0CA
:1004A0009A858A89981321E02A87CE010996BBC0D4
:1004B000823049F420E09A858A89981321E02A8BBA
:1004C000CE014196B0C02D843E844F8458886D88FB
:1004D0007E888F88988CEE24FF248701AA24BB2471
:1004E000650140E050E060E070E0E0E0F0E0C10174
:1004F00081709070892BE9F0E60CF71C081D191D1E
:100500009A01AB012A0D3B1D4C1D5D1D80E090E062
:10051000A0E0B0E0E614F7040805190520F481E036
:1005200090E0A0E0B0E0BA01A901480F591F6A1F8E
:100530007B1FAA0CBB1CCC1CDD1C97FE08C081E0F5
:1005400090E0A0E0B0E0A82AB92ACA2ADB2A3196B6
:10055000E032F10549F0660C771C881C991C569412
:10056000479437942794C3CFFA85EA892B893C892D
:100570008B859C85280F391F2E5F3F4F17C0CA01FE
:1005800081709070892B61F016950795F794E79428
:1005900080E090E0A0E0B0E8E82AF92A0A2B1B2BC3
:1005A00076956795579547952F5F3F4F77FDE7CF36
:1005B0000CC0440F551F661F771F17FD4160EE0CDE
:1005C000FF1C001F111F21503040403090E05907A0
:1005D00090E0690790E4790760F32B8F3C8FDB0193
:1005E000CA018F779070A070B07080349105A1051A
:1005F000B10561F447FD0AC0E114F10401051105DC
:1006000029F0405C5F4F6F4F7F4F40781A8EFE1786
:1006100011F081E08A8F4D8F5E8F6F8F78A383E01A
:10062000898FCE0149960E94CF05A096E2E10C94F5
:100630006730A8E1B0E0EFE1F3E00C945330698358
:100640007A838B839C832D833E834F835887B9E0C5
:10065000EB2EF12CEC0EFD1ECE010196B7010E948F
:10066000A4068E010F5E1F4FCE010596B8010E94B1
:10067000A4062985223008F47EC03989323010F46E
:10068000B8017CC08A859A8989278A87243011F02D
:10069000223031F4231709F06EC060E670E06EC0BE
:1006A000343039F41D861E861F86188A1C861B86E8
:1006B00004C0323021F484E08987B7015FC02B8504
:1006C0003C858B899C89281B390B3C872B87ED84C3
:1006D000FE840F851889AD88BE88CF88D88CEA142F
:1006E000FB040C051D0540F4EE0CFF1C001F111F40
:1006F000215030403C872B8720E030E040E050E044
:1007000080E090E0A0E0B0E460E070E0EA14FB0478
:100710000C051D0540F0282B392B4A2B5B2BEA18C2
:10072000FB080C091D09B695A79597958795EE0CC2
:10073000FF1C001F111F6F5F7F4F6F31710531F775
:10074000DA01C9018F779070A070B0708034910584
:10075000A105B10561F427FD0AC0E114F10401050A
:10076000110529F0205C3F4F4F4F5F4F20782D87B8
:100770003E874F87588BBE01675F7F4FCB010E943A
:10078000CF056896EAE00C946F30A8E1B0E0EBEC9E
:10079000F3E00C94573069837A838B839C832D8399
:1007A0003E834F83588789E0E82EF12CEC0EFD1E26
:1007B000CE010196B7010E94A4068E010F5E1F4F65
:1007C000CE010596B8010E94A4068985823040F0CA
:1007D0008989823028F0C701B8010E941C0701C036
:1007E0008FEF6896E6E00C947330A8E1B0E0EBEF91
:1007F000F3E00C94573069837A838B839C832D8339
:100800003E834F83588789E0E82EF12CEC0EFD1EC5
:10081000CE010196B7010E94A4068E010F5E1F4F04
:10082000CE010596B8010E94A4068985823040F069
:100830008989823028F0C701B8010E941C0701C0D5
:100840008FEF6896E6E00C947330A8E1B0E0EBE23D
:10085000F4E00C94573069837A838B839C832D83D7
:100860003E834F83588789E0E82EF12CEC0EFD1E65
:10087000CE010196B7010E94A4068E010F5E1F4FA4
:10088000CE010596B8010E94A4068985823040F009
:100890008989823028F0C701B8010E941C0701C075
:1008A00081E06896E6E00C947330A8E0B0E0EBE5F8
:1008B000F4E00C9454309B01AC0183E08983DA01AD
:1008C000C9018827B7FD83959927AA27BB27B82E8A
:1008D000211531054105510519F482E089833AC09B
:1008E0008823A9F0203080E0380780E0480780E8BE
:1008F000580729F460E070E080E09FEC30C0EE24FF
:10090000FF248701E21AF30A040B150B02C07901D8
:100910008A018EE1C82ED12CDC82CB82ED82FE8250
:100920000F831887C801B7010E9480050197181628
:10093000190684F4082E04C0EE0CFF1C001F111FC2
:100940000A94D2F7ED82FE820F831887C81AD90A5B
:10095000DC82CB82BA82CE0101960E94CF05289616
:10096000E9E00C947030ACE0B0E0E9EBF4E00C941A
:100970005B3069837A838B839C83CE010196BE01B1
:100980006B5F7F4F0E94A4068D81823061F18230BF
:1009900050F1843021F48E81882351F12EC02F81B3
:1009A000388537FD20C06E812F3131051CF066235C
:1009B000F9F023C08EE190E0821B930B29853A85E4
:1009C0004B855C8504C056954795379527958A9544
:1009D000D2F76623B1F050954095309521953F4F61
:1009E0004F4F5F4F0EC020E030E040E050E009C0C4
:1009F0002FEF3FEF4FEF5FE704C020E030E040E033
:100A000050E8B901CA012C96E2E00C947730A8E0D6
:100A1000B0E0EDE0F5E00C9453307B018C01611502
:100A200071058105910519F482E0898360C083E036
:100A300089838EE1C82ED12CDC82CB82ED82FE82AE
:100A40000F831887C801B7010E948005FC01319708
:100A5000F7FF3BC0222733272E1B3F0B57016801AE
:100A6000022E04C0D694C794B794A7940A94D2F7E0
:100A700040E050E060E070E081E090E0A0E0B0E0B5
:100A800004C0880F991FAA1FBB1F2A95D2F7019790
:100A9000A109B1098E219F21A023B1230097A105AF
:100AA000B10521F041E050E060E070E04A295B29A7
:100AB0006C297D294D835E836F8378878EE190E07A
:100AC0008E1B9F0B9C838B8312C0309781F00E2E60
:100AD00004C0EE0CFF1C001F111F0A94D2F7ED8218
:100AE000FE820F831887CE1ADF0ADC82CB821A823D
:100AF000CE0101960E94CF052896EAE00C946F3053
:100B0000EF92FF920F931F937B018C0180E0E81618
:100B100080E0F80681E0080780E0180788F48FEF8E
:100B2000E816F1040105110531F028F088E090E0A5
:100B3000A0E0B0E017C080E090E0A0E0B0E012C01C
:100B400080E0E81680E0F80680E0080781E01807FA
:100B500028F088E190E0A0E0B0E004C080E190E0FF
:100B6000A0E0B0E020E230E040E050E0281B390B8C
:100B70004A0B5B0B04C016950795F794E7948A958A
:100B8000D2F7F701E859FF4F8081281B310941094D
:100B90005109C9011F910F91FF90EF900895DF92C5
:100BA000EF92FF920F931F93FC01E480F580068182
:100BB0001781D1808081823048F480E090E0A0E10C
:100BC000B0E0E82AF92A0A2B1B2BA5C0843009F4CF
:100BD0009FC0823021F4EE24FF24870105C0E11478
:100BE000F1040105110519F4E0E0F0E096C062811E
:100BF00073819FEF623879070CF05BC022E83FEF0A
:100C0000261B370B2A3131052CF020E030E040E084
:100C100050E02AC0B801A701022E04C0769567955E
:100C2000579547950A94D2F781E090E0A0E0B0E0B4
:100C300004C0880F991FAA1FBB1F2A95D2F70197DE
:100C4000A109B1098E219F21A023B1230097A105FD
:100C5000B10521F081E090E0A0E0B0E09A01AB01A5
:100C6000282B392B4A2B5B2BDA01C9018F77907027
:100C7000A070B07080349105A105B10539F427FF4B
:100C800009C0205C3F4F4F4F5F4F04C0215C3F4F76
:100C90004F4F5F4FE0E0F0E02030A0E03A07A0E0E7
:100CA0004A07A0E45A0710F0E1E0F0E079018A0178
:100CB00027C06038710564F5FB01E158FF4FD8018A
:100CC000C7018F779070A070B07080349105A10536
:100CD000B10539F4E7FE0DC080E490E0A0E0B0E09B
:100CE00004C08FE390E0A0E0B0E0E80EF91E0A1F18
:100CF0001B1F17FF05C016950795F794E7943196CB
:100D000087E016950795F794E7948A95D1F705C083
:100D1000EE24FF248701EFEFF0E06E2F6795662742
:100D20006795902F9F77D794DD24D7948E2F869543
:100D3000492F462B582F5D29B701CA011F910F91EA
:100D4000FF90EF90DF900895FC01DB01408151811D
:100D50002281622F6F7770E0221F2227221F93814A
:100D6000892F880F822B282F30E0991F9927991FF0
:100D700011969C93119721153105A9F5411551053F
:100D80006105710511F482E037C082E89FEF139688
:100D90009C938E9312979A01AB0167E0220F331F49
:100DA000441F551F6A95D1F783E08C930DC0220F25
:100DB000331F441F551F12968D919C9113970197D5
:100DC00013969C938E931297203080E0380780E032
:100DD000480780E4580758F314962D933D934D939C
:100DE0005C93179708952F3F310579F4411551050C
:100DF0006105710519F484E08C93089564FF03C0C4
:100E000081E08C9312C01C9210C02F573040139673
:100E10003C932E93129783E08C9387E0440F551FE9
:100E2000661F771F8A95D1F7706414964D935D9372
:100E30006D937C93179708951F93DC01FB019C91A0
:100E4000923008F447C08081823008F443C0943067
:100E500051F411961C91843099F58181682F70E0CE
:100E6000611B71093FC0843021F0923031F482302F
:100E7000B9F18181882389F12DC011961C911197B8
:100E80008230F1F081811817D9F412962D913C919E
:100E90001397828193818217930794F0281739075B
:100EA000BCF014968D919D910D90BC91A02D248144
:100EB000358146815781281739074A075B0718F49F
:100EC000112341F00AC082179307A407B50740F425
:100ED000112319F061E070E005C06FEF7FEF02C0F1
:100EE00060E070E0CB011F910895DF93CF93CDB701
:100EF000DEB70E94810787E00E94A607CF91DF91AD
:100F00000895DF93CF93CDB7DEB7A1E4B0E0E1E47D
:100F1000F0E0808188608C93CF91DF910895DF931A
:100F2000CF93CDB7DEB70E94BA07A1E4B0E0E1E409
:100F3000F0E0808188618C93A1E4B0E0E1E4F0E02E
:100F40008081877F8C93CF91DF910895DF93CF933A
:100F50000F92CDB7DEB78983A1E4B0E0E1E4F0E021
:100F60008081982F987F8981892B8C930F90CF91C6
:100F7000DF910895DF93CF93CDB7DEB7A895CF91DA
:100F8000DF910895DF93CF93CDB7DEB70E94A40819
:100F90000E94B20883E390E00E94870883E00E94E9
:100FA0002B08CF91DF910895DF93CF930F92CDB7A8
:100FB000DEB789838981882341F0A0E4B0E0E0E4D2
:100FC000F0E08081806C8C9308C0A0E4B0E0E0E4A5
:100FD000F0E080818F7380688C930F90CF91DF91C8
:100FE0000895DF93CF930F92CDB7DEB78983A0E446
:100FF000B0E0E0E4F0E080818F748068282F898180
:10100000882F90E082959295907F9827807F9827EF
:10101000822B8C930F90CF91DF910895DF93CF9324
:101020000F92CDB7DEB789838981882341F0A0E490
:10103000B0E0E0E4F0E0808188688C9308C0A0E430
:10104000B0E0E0E4F0E08081877780688C930F90D7
:10105000CF91DF910895DF93CF9300D00F92CDB75A
:10106000DEB789838981282F30E03B832A838A81F8
:101070009B8199234CF12A813B812430310534F046
:101080008A819B818730910589F01EC0A0E4B0E081
:10109000E0E4F0E0808189778068282F8981882FBB
:1010A00090E0880F991F822B8C930EC0A0E4B0E0D3
:1010B000E0E4F0E0808186688C93AAE2B0E0EAE2A6
:1010C000F0E0808184608C930F900F900F90CF910F
:1010D000DF910895DF93CF930F92CDB7DEB7898369
:1010E0008981882341F0A0E4B0E0E0E4F0E0808171
:1010F00081688C9308C0A0E4B0E0E0E4F0E0808177
:101100008E7780688C930F90CF91DF910895DF9355
:10111000CF9300D0CDB7DEB79A838983E9E2F0E0C0
:1011200089818083A0E4B0E0E0E4F0E08081282FB2
:10113000207789819A81892F9927822B8C930F9010
:101140000F90CF91DF910895DF93CF93CDB7DEB7A6
:10115000AAE2B0E0EAE2F0E0808188608C93CF916F
:10116000DF910895DF93CF93CDB7DEB7AAE2B0E069
:10117000EAE2F0E0808180618C93CF91DF91089565
:10118000DF93CF93CDB7DEB7AAE2B0E0EAE2F0E0BA
:101190008081877F8C93CF91DF910895DF93CF93E8
:1011A000CDB7DEB7AAE2B0E0EAE2F0E080818F7E60
:1011B0008C93CF91DF910895DF93CF930F92CDB7AA
:1011C000DEB78983EBE2F0E08081829586958770B7
:1011D000882F90E0817090700097A1F3ECE2F0E02E
:1011E00089818083EBE2F0E0808182958695869507
:1011F0008370882F90E081709070009799F30F9022
:10120000CF91DF910895DF93CF93CDB7DEB78DE017
:101210000E94DC088AE00E94DC08CF91DF910895EB
:10122000EF92FF920F931F93DF93CF93CDB7DEB76B
:1012300029970FB6F894DEBF0FBECDBF6E837F83B4
:10124000888799878E819F81A885B9850097A10598
:10125000B10521F480E30E94DC0874C01D8219826C
:101260001A821B821C823BC08E819F81A885B98512
:101270002AE030E040E050E0BC01CD010E9429307E
:10128000DC01CB017C018D0189819A81AB81BC811C
:101290002AE030E040E050E0BC01CD010E940A307D
:1012A000DC01CB018E0D9F1DA01FB11F89839A8386
:1012B000AB83BC838E819F81A885B9852AE030E00D
:1012C00040E050E0BC01CD010E942930DA01C901A3
:1012D0008E839F83A887B9878D818F5F8D838E8151
:1012E0009F81A885B9850097A105B10509F0BCCFFC
:1012F00026C089819A81AB81BC812AE030E040E040
:1013000050E0BC01CD010E942930DC01CB01805DA1
:101310000E94DC0889819A81AB81BC812AE030E09F
:1013200040E050E0BC01CD010E942930DA01C90142
:1013300089839A83AB83BC838D8181508D838D811A
:101340008823B9F629960FB6F894DEBF0FBECDBF3D
:10135000CF91DF911F910F91FF90EF900895EF9241
:10136000FF920F931F93DF93CF93CDB7DEB72A97EA
:101370000FB6F894DEBF0FBECDBF6F837887898725
:101380009A871E821A821B821C821D823BC08F811B
:101390009885A985BA852AE030E040E050E0BC019C
:1013A000CD010E942930DC01CB017C018D018A81B5
:1013B0009B81AC81BD812AE030E040E050E0BC017F
:1013C000CD010E940A30DC01CB018E0D9F1DA01FB4
:1013D000B11F8A839B83AC83BD838F819885A98548
:1013E000BA852AE030E040E050E0BC01CD010E9427
:1013F0002930DA01C9018F839887A987BA878E813E
:101400008F5F8E838F819885A985BA850097A10506
:10141000B10509F0BCCF83E09E81891B898306C09A
:1014200080E30E94DC088981815089838981882337
:10143000B9F726C08A819B81AC81BD812AE030E06A
:1014400040E050E0BC01CD010E942930DC01CB011D
:10145000805D0E94DC088A819B81AC81BD812AE08D
:1014600030E040E050E0BC01CD010E942930DA01BB
:10147000C9018A839B83AC83BD838E8181508E8317
:101480008E818823B9F62A960FB6F894DEBF0FBE78
:10149000CDBFCF91DF911F910F91FF90EF900895F5
:1014A000DF93CF93CDB7DEB72C970FB6F894DEBF9E
:1014B0000FBECDBF69877A878B879C8769857A85C0
:1014C0008B859C8520E030E040E050E00E942504C0
:1014D000882364F489859A85AB85BC85B058898753
:1014E0009A87AB87BC878DE20E94DC0869857A8584
:1014F0008B859C850E94B304DC01CB018D839E8388
:10150000AF83B8876D817E818F8198850E940705A2
:101510009B01AC0169857A858B859C850E94C10100
:10152000DC01CB0189839A83AB83BC838D819E814F
:10153000AF81B885BC01CD010E94100969817A8113
:101540008B819C812FE632E143E85AE30E94C50378
:101550001816CCF48EE20E94DC0869817A818B81B6
:101560009C8120E030E04AE754E40E941F02DC0145
:10157000CB01BC01CD010E944900DC01CB01BC01C3
:10158000CD010E94AF092C960FB6F894DEBF0FBEB6
:10159000CDBFCF91DF910895DF93CF9300D0CDB72A
:1015A000DEB79A83898312C0E981FA8180818A300B
:1015B00019F40E94030905C0E981FA8180810E9423
:1015C000DC0889819A8101969A838983E981FA816D
:1015D0008081882349F70F900F90CF91DF91089574
:1015E000DF93CF9300D000D0CDB7DEB79C838B8341
:1015F0001C821B82EBE2F0E080818823DCF7EAE2C8
:10160000F0E080818695882F90E081709070982F0F
:1016100088279A838983ECE2F0E08081282F30E0EC
:1016200089819A81822B932B9A838983EBE2F0E064
:101630008081869586958695882F90E08170907040
:10164000882329F0EB81FC8182E080831FC0EBE2DC
:10165000F0E0808186958695882F90E0817090706B
:10166000882329F0EB81FC8183E080830FC0EBE2CB
:10167000F0E0808182958F70882F90E0817090706B
:10168000882321F0EB81FC8181E0808389819A812C
:101690000F900F900F900F90CF91DF910895DF93EF
:1016A000CF93CDB7DEB7ECE2F0E08081CF91DF9150
:1016B0000895DF93CF93CDB7DEB7AAE2B0E0EAE2B8
:1016C000F0E0808180688C93CF91DF910895DF9363
:1016D000CF93CDB7DEB7AAE2B0E0EAE2F0E08081D6
:1016E0008F778C93CF91DF910895DF93CF93CDB710
:1016F000DEB7AAE2B0E0EAE2F0E0808180648C9399
:10170000CF91DF910895DF93CF93CDB7DEB7AAE2F3
:10171000B0E0EAE2F0E080818F7B8C93CF91DF91A3
:101720000895DF93CF93CDB7DEB7AAE2B0E0EAE247
:10173000F0E0808180628C93CF91DF910895DF93F8
:10174000CF93CDB7DEB7AAE2B0E0EAE2F0E0808165
:101750008F7D8C93CF91DF910895DF93CF9300D04D
:10176000CDB7DEB79A83898389819A819093D3011B
:101770008093D2010F900F90CF91DF910895DF9366
:10178000CF9300D0CDB7DEB79A83898389819A81C0
:101790009093D5018093D4010F900F90CF91DF915A
:1017A0000895DF93CF9300D0CDB7DEB79A838983B6
:1017B00089819A819093D7018093D6010F900F90E1
:1017C000CF91DF9108951F920F920FB60F921124BF
:1017D0002F933F934F935F936F937F938F939F9339
:1017E000AF93BF93EF93FF93DF93CF93CDB7DEB764
:1017F0008091D2019091D301009729F0E091D2011C
:10180000F091D3010995CF91DF91FF91EF91BF91B5
:10181000AF919F918F917F916F915F914F913F9188
:101820002F910F900FBE0F901F9018951F920F923F
:101830000FB60F9211242F933F934F935F936F93A3
:101840007F938F939F93AF93BF93EF93FF93DF9318
:10185000CF93CDB7DEB78091D4019091D501009799
:1018600029F0E091D401F091D5010995CF91DF9154
:10187000FF91EF91BF91AF919F918F917F916F9168
:101880005F914F913F912F910F900FBE0F901F903E
:1018900018951F920F920FB60F9211242F933F931A
:1018A0004F935F936F937F938F939F93AF93BF9368
:1018B000EF93FF93DF93CF93CDB7DEB78091D6013F
:1018C0009091D701009729F0E091D601F091D701CE
:1018D0000995CF91DF91FF91EF91BF91AF919F91CA
:1018E0008F917F916F915F914F913F912F910F90C9
:1018F0000FBE0F901F901895DF93CF930F92CDB727
:10190000DEB78983A6E5B0E0E6E5F0E0808180649B
:101910008C93E0E2F0E082E08083A1E2B0E0E1E2DB
:10192000F0E0808181608C93A1E2B0E0E1E2F0E040
:10193000808182608C938981882329F0E2E2F0E043
:101940008981880F8083A6E5B0E0E6E5F0E080813C
:1019500084608C930F90CF91DF910895DF93CF93A4
:101960000F92CDB7DEB78983E2E2F0E08981880F7C
:101970008083A6E5B0E0E6E5F0E0808180648C93AA
:10198000A6E5B0E0E6E5F0E0808184608C930F90FE
:10199000CF91DF910895DF93CF930F92CDB7DEB74C
:1019A0001982A6E5B0E0E6E5F0E0808180628C93E4
:1019B000A6E5B0E0E6E5F0E0808180688C93E6E59E
:1019C000F0E080818823DCF7E1E2F0E08081882F7D
:1019D00090E0887F90708830910511F081E08983D4
:1019E00089810F90CF91DF910895DF93CF930F926C
:1019F000CDB7DEB71982A6E5B0E0E6E5F0E080817C
:101A0000846A8C93E6E5F0E080818823DCF7E1E2EC
:101A1000F0E08081882F90E0887F90708031910580
:101A200011F082E0898389810F90CF91DF91089531
:101A3000DF93CF9300D0CDB7DEB78A831982E3E27C
:101A4000F0E08A81880F8083A3E2B0E0E3E2F0E077
:101A500080818E7F8C93A6E5B0E0E6E5F0E08081A2
:101A60008F7D8C93A6E5B0E0E6E5F0E080818068AC
:101A70008C93E6E5F0E080818823DCF7E1E2F0E09A
:101A80008081882F90E0887F90708831910511F0D7
:101A900083E0898389810F900F90CF91DF91089522
:101AA000DF93CF9300D0CDB7DEB78A831982E3E20C
:101AB000F0E08A81880F8083A3E2B0E0E3E2F0E007
:101AC000808181608C93A6E5B0E0E6E5F0E080815E
:101AD0008F7D8C93A6E5B0E0E6E5F0E0808180683C
:101AE0008C93E6E5F0E080818823DCF7E1E2F0E02A
:101AF0008081882F90E0887F90708034910511F06C
:101B000084E0898389810F900F90CF91DF910895B0
:101B1000DF93CF9300D0CDB7DEB78A831982E3E29B
:101B2000F0E08A818083A6E5B0E0E6E5F0E0808120
:101B300080688C93E6E5F0E080818823DCF7E1E2C1
:101B4000F0E08081882F90E0887F90708832910546
:101B500011F085E0898389810F900F90CF91DF91FB
:101B60000895DF93CF9300D00F92CDB7DEB79B835C
:101B70008A831982A6E5B0E0E6E5F0E0808180681E
:101B80008C93E6E5F0E080818823DCF7E1E2F0E089
:101B90008081882F90E0887F90708035910519F0C2
:101BA00086E0898306C0E3E2F0E08081EA81FB8180
:101BB000808389810F900F900F90CF91DF910895CE
:101BC000DF93CF93CDB7DEB7A6E5B0E0E6E5F0E072
:101BD000808180618C93A6E5B0E0E6E5F0E080814D
:101BE00080688C93CF91DF910895DF93CF9300D0DD
:101BF0000F92CDB7DEB79B838A831982A6E5B0E04A
:101C0000E6E5F0E080818F7B8C93A6E5B0E0E6E529
:101C1000F0E0808180688C93E6E5F0E080818823A5
:101C2000DCF7E1E2F0E08081882F90E0887F90701F
:101C30008035910519F086E0898306C0E3E2F0E083
:101C40008081EA81FB818083A6E5B0E0E6E5F0E0F3
:101C5000808180648C9389810F900F900F90CF9139
:101C6000DF910895DF93CF93CDB7DEB783E00E9475
:101C7000E20E83E00E94510E81E063E041E00E94A9
:101C8000A917CF91DF910895DF93CF93CDB7DEB73A
:101C900082E00E94E20E80E00E94510ECF91DF911F
:101CA0000895DF93CF9300D00F92CDB7DEB789832D
:101CB0008981282F30E03B832A838A819B81813070
:101CC000910521F12A813B81223031052CF48A8152
:101CD0009B81009761F046C02A813B81223031050B
:101CE00021F18A819B818330910571F13BC0A3E58D
:101CF000B0E0E3E5F0E080818F7B8C93A3E5B0E07A
:101D0000E3E5F0E08081877F8C932CC0A3E5B0E011
:101D1000E3E5F0E0808180648C93A3E5B0E0E3E547
:101D2000F0E08081877F8C931DC0A3E5B0E0E3E500
:101D3000F0E080818F7B8C93A3E5B0E0E3E5F0E0F9
:101D4000808188608C930EC0A3E5B0E0E3E5F0E00D
:101D5000808180648C93A3E5B0E0E3E5F0E08081CE
:101D600088608C930F900F900F90CF91DF91089522
:101D7000DF93CF930F92CDB7DEB78983ECE5F0E028
:101D8000898180830F90CF91DF910895DF93CF9366
:101D90000F92CDB7DEB78983A3E5B0E0E3E5F0E0CD
:101DA0008081282F2F7C8981882F90E082959295C1
:101DB000907F9827807F9827822B8C930F90CF91CC
:101DC000DF910895DF93CF930F92CDB7DEB789836C
:101DD000A3E5B0E0E3E5F0E08081982F987F89816A
:101DE000892B8C930F90CF91DF910895DF93CF9340
:101DF0000F92CDB7DEB78983E2E5F0E08981808379
:101E00000F90CF91DF910895DF93CF93CDB7DEB7D9
:101E1000E2E5F0E08081CF91DF910895DF93CF93E9
:101E2000CDB7DEB7A9E5B0E0E9E5F0E080818160FB
:101E30008C93CF91DF910895DF93CF93CDB7DEB729
:101E4000A9E5B0E0E9E5F0E080818E7F8C93CF9149
:101E5000DF910895DF93CF93CDB7DEB7A9E5B0E06A
:101E6000E9E5F0E0808182608C93CF91DF91089565
:101E7000DF93CF93CDB7DEB7A9E5B0E0E9E5F0E0B9
:101E800080818D7F8C93CF91DF910895DF93CF93E5
:101E900000D0CDB7DEB79A83898389819A819093E8
:101EA000D9018093D8010F900F90CF91DF910895C1
:101EB000DF93CF9300D0CDB7DEB79A838983898132
:101EC0009A819093DB018093DA010F900F90CF916C
:101ED000DF9108951F920F920FB60F9211242F9346
:101EE0003F934F935F936F937F938F939F93AF93A2
:101EF000BF93EF93FF93DF93CF93CDB7DEB780917E
:101F0000DA019091DB01009729F0E091DA01F0917C
:101F1000DB010995CF91DF91FF91EF91BF91AF91D7
:101F20009F918F917F916F915F914F913F912F91F1
:101F30000F900FBE0F901F9018951F920F920FB623
:101F40000F9211242F933F934F935F936F937F933F
:101F50008F939F93AF93BF93EF93FF93DF93CF93B1
:101F6000CDB7DEB78091D8019091D901009729F0C3
:101F7000E091D801F091D9010995CF91DF91FF91BE
:101F8000EF91BF91AF919F918F917F916F915F91F1
:101F90004F913F912F910F900FBE0F901F9018956A
:101FA000DF93CF93CDB7DEB784E00E945F1087E068
:101FB0000E943A10CF91DF910895DF93CF93CDB770
:101FC000DEB784E00E945F1087E00E943A1083E051
:101FD00065E041E00E94A91783E064E041E00E94CF
:101FE000A917CF91DF910895DF93CF9300D000D050
:101FF000CDB7DEB789836A838981282F30E03C839F
:102000002B838B819C81009731F02B813C81213087
:102010003105B9F028C0AFE4B0E0EFE4F0E0808132
:10202000282F2F738A81882F90E00024969587951A
:102030000794969587950794982F802D822B8C93E3
:1020400012C0AFE4B0E0EFE4F0E08081282F2F7CF5
:102050008A81882F90E082959295907F9827807F43
:102060009827822B8C930F900F900F900F90CF9109
:10207000DF910895DF93CF930F92CDB7DEB78983B9
:10208000AFE4B0E0EFE4F0E08081982F9C7F89819D
:102090008370892B8C93AEE4B0E0EEE4F0E08081B5
:1020A000282F277E8981882F90E08C709070880F70
:1020B000991F822B8C930F90CF91DF910895DF931E
:1020C000CF930F92CDB7DEB78983AEE4B0E0EEE4F4
:1020D000F0E08081982F987F8981892B8C930F90D5
:1020E000CF91DF910895DF93CF9300D0CDB7DEB7C6
:1020F0009A838983EBE4F0E089819A81892F99277B
:102100008083EAE4F0E0898180830F900F90CF9183
:10211000DF910895DF93CF9300D0CDB7DEB79A83D8
:102120008983E9E4F0E089819A81892F9927808366
:10213000E8E4F0E0898180830F900F90CF91DF91E8
:102140000895DF93CF9300D0CDB7DEB79A8389830C
:10215000EDE4F0E089819A81892F99278083ECE46E
:10216000F0E0898180830F900F90CF91DF910895E7
:10217000DF93CF9300D0CDB7DEB7ECE4F0E0808101
:10218000882F90E09A838983EDE4F0E08081882FA6
:1021900090E0382F222789819A81822B932B9A8372
:1021A000898389819A810F900F90CF91DF91089553
:1021B000DF93CF9300D0CDB7DEB79A838983E7E46E
:1021C000F0E089819A81892F99278083E6E4F0E005
:1021D000898180830F900F90CF91DF910895DF93D5
:1021E000CF9300D0CDB7DEB7E6E4F0E08081882F52
:1021F00090E09A838983E7E4F0E08081882F90E083
:10220000382F222789819A81822B932B9A83898365
:1022100089819A810F900F90CF91DF910895DF937C
:10222000CF93CDB7DEB7AEE4B0E0EEE4F0E080816E
:1022300080688C93CF91DF910895DF93CF93CDB7D2
:10224000DEB7AEE4B0E0EEE4F0E080818F778C930F
:10225000CF91DF910895DF93CF930F92CDB7DEB783
:1022600089838981882341F0AEE4B0E0EEE4F0E0B8
:10227000808180648C9307C0AEE4B0E0EEE4F0E0CF
:1022800080818F7B8C930F90CF91DF910895DF93A6
:10229000CF93CDB7DEB7A9E5B0E0E9E5F0E0808106
:1022A00080628C93CF91DF910895DF93CF93CDB768
:1022B000DEB7A9E5B0E0E9E5F0E080818F7D8C93A1
:1022C000CF91DF910895DF93CF93CDB7DEB7A9E526
:1022D000B0E0E9E5F0E0808180618C93CF91DF91FF
:1022E0000895DF93CF93CDB7DEB7A9E5B0E0E9E578
:1022F000F0E080818F7E8C93CF91DF910895DF9302
:10230000CF93CDB7DEB7A9E5B0E0E9E5F0E0808195
:1023100088608C93CF91DF910895DF93CF93CDB7F1
:10232000DEB7A9E5B0E0E9E5F0E08081877F8C9336
:10233000CF91DF910895DF93CF93CDB7DEB7A9E5B5
:10234000B0E0E9E5F0E0808184608C93CF91DF918B
:102350000895DF93CF93CDB7DEB7A9E5B0E0E9E507
:10236000F0E080818B7F8C93CF91DF910895DF9394
:10237000CF9300D0CDB7DEB79A83898389819A81C4
:102380009093E3018093E2010F900F90CF91DF9142
:102390000895DF93CF9300D0CDB7DEB79A838983BA
:1023A00089819A819093DF018093DE010F900F90D5
:1023B000CF91DF910895DF93CF9300D0CDB7DEB7F3
:1023C0009A83898389819A819093E1018093E001C6
:1023D0000F900F90CF91DF910895DF93CF9300D0AE
:1023E000CDB7DEB79A83898389819A819093DD0185
:1023F0008093DC010F900F90CF91DF9108951F9291
:102400000F920FB60F9211242F933F934F935F9328
:102410006F937F938F939F93AF93BF93EF93FF93AC
:10242000DF93CF93CDB7DEB78091E2019091E301C6
:10243000009729F0E091E201F091E3010995CF9135
:10244000DF91FF91EF91BF91AF919F918F917F911C
:102450006F915F914F913F912F910F900FBE0F9011
:102460001F9018951F920F920FB60F9211242F9361
:102470003F934F935F936F937F938F939F93AF930C
:10248000BF93EF93FF93DF93CF93CDB7DEB78091E8
:10249000DE019091DF01009729F0E091DE01F091DB
:1024A000DF010995CF91DF91FF91EF91BF91AF913E
:1024B0009F918F917F916F915F914F913F912F915C
:1024C0000F900FBE0F901F9018951F920F920FB68E
:1024D0000F9211242F933F934F935F936F937F93AA
:1024E0008F939F93AF93BF93EF93FF93DF93CF931C
:1024F000CDB7DEB78091E0019091E101009729F01E
:10250000E091E001F091E1010995CF91DF91FF9118
:10251000EF91BF91AF919F918F917F916F915F915B
:102520004F913F912F910F900FBE0F901F901895D4
:102530001F920F920FB60F9211242F933F934F9338
:102540005F936F937F938F939F93AF93BF93EF931B
:10255000FF93DF93CF93CDB7DEB78091DC019091ED
:10256000DD01009729F0E091DC01F091DD01099592
:10257000CF91DF91FF91EF91BF91AF919F918F919B
:102580007F916F915F914F913F912F910F900FBE6F
:102590000F901F901895DF93CF93CDB7DEB784E0EF
:1025A0000E947B1383E00E94EA1283E067E041E02F
:1025B0000E94A917CF91DF910895DF93CF93CDB7F4
:1025C000DEB781E00E94E20E80E00E94510ECF91C2
:1025D000DF910895DF93CF9300D00F92CDB7DEB790
:1025E00089838981282F30E03B832A838A819B81DC
:1025F0008130910521F12A813B81223031052CF473
:102600008A819B81009761F046C02A813B812230FC
:10261000310521F18A819B818330910571F13BC0A5
:10262000A5E4B0E0E5E4F0E080818F7B8C93A5E445
:10263000B0E0E5E4F0E08081877F8C932CC0A5E4D6
:10264000B0E0E5E4F0E0808180648C93A5E4B0E044
:10265000E5E4F0E08081877F8C931DC0A5E4B0E0C5
:10266000E5E4F0E080818F7B8C93A5E4B0E0E5E4C5
:10267000F0E0808188608C930EC0A5E4B0E0E5E4D2
:10268000F0E0808180648C93A5E4B0E0E5E4F0E0C4
:10269000808188608C930F900F900F90CF91DF9185
:1026A0000895DF93CF930F92CDB7DEB78983E3E42C
:1026B000F0E0898180830F90CF91DF910895DF93BF
:1026C000CF930F92CDB7DEB78983A5E4B0E0E5E400
:1026D000F0E08081282F2F7C8981882F90E08295DF
:1026E0009295907F9827807F9827822B8C930F90CC
:1026F000CF91DF910895DF93CF930F92CDB7DEB7DF
:102700008983A5E4B0E0E5E4F0E08081982F987F2C
:102710008981892B8C930F90CF91DF910895DF935E
:10272000CF930F92CDB7DEB78983E4E4F0E08981DF
:1027300080830F90CF91DF910895DF93CF93CDB732
:10274000DEB7E4E4F0E08081CF91DF910895DF937C
:10275000CF93CDB7DEB7A9E5B0E0E9E5F0E0808141
:1027600080648C93CF91DF910895DF93CF93CDB7A1
:10277000DEB7A9E5B0E0E9E5F0E080818F7B8C93DE
:10278000CF91DF910895DF93CF93CDB7DEB7A9E561
:10279000B0E0E9E5F0E0808180688C93CF91DF9133
:1027A0000895DF93CF93CDB7DEB7A9E5B0E0E9E5B3
:1027B000F0E080818F778C93CF91DF910895DF9344
:1027C000CF9300D0CDB7DEB79A83898389819A8170
:1027D0009093E5018093E4010F900F90CF91DF91EA
:1027E0000895DF93CF9300D0CDB7DEB79A83898366
:1027F00089819A819093E7018093E6010F900F9071
:10280000CF91DF9108951F920F920FB60F9211246E
:102810002F933F934F935F936F937F938F939F93E8
:10282000AF93BF93EF93FF93DF93CF93CDB7DEB713
:102830008091E6019091E701009729F0E091E6018F
:10284000F091E7010995CF91DF91FF91EF91BF9151
:10285000AF919F918F917F916F915F914F913F9138
:102860002F910F900FBE0F901F9018951F920F92EF
:102870000FB60F9211242F933F934F935F936F9353
:102880007F938F939F93AF93BF93EF93FF93DF93C8
:10289000CF93CDB7DEB78091E4019091E501009729
:1028A00029F0E091E401F091E5010995CF91DF91E4
:1028B000FF91EF91BF91AF919F918F917F916F9118
:1028C0005F914F913F912F910F900FBE0F901F90EE
:1028D0001895DF93CF930F92CDB7DEB789838981A7
:1028E0008130E1F4ADE2B0E0EDE2F0E080818061C2
:1028F0008C9381E064E041E00E94A91781E065E0EB
:1029000041E00E94A91781E067E041E00E94A91719
:1029100081E066E040E00E94A9171BC081E065E00D
:1029200040E00E94A91781E066E041E00E94A917FB
:1029300081E067E040E00E94A91781E064E040E0A8
:102940000E94A917ADE2B0E0EDE2F0E080818F7E59
:102950008C93ADE2B0E0EDE2F0E0808180648C9396
:10296000ADE2B0E0EDE2F0E0808180628C93ADE218
:10297000B0E0EDE2F0E08081877F8C93ADE2B0E0E3
:10298000EDE2F0E0808184608C93ADE2B0E0EDE2B6
:10299000F0E0808181608C93ADE2B0E0EDE2F0E0A8
:1029A00080818D7F8C93AEE2B0E0EEE2F0E080813A
:1029B0008E7F8C930F90CF91DF910895DF93CF930B
:1029C0000F92CDB7DEB78983EFE2F0E08981808393
:1029D000EEE2F0E080818823DCF7EFE2F0E0808136
:1029E0000F90CF91DF910895DF93CF930F92CDB7E2
:1029F000DEB7EEE2F0E080811982882314F481E0F2
:102A0000898389810F90CF91DF910895DF93CF93D0
:102A1000CDB7DEB780E00E941715A5E5B0E0E5E58B
:102A2000F0E0808180688C93CF91DF910895DF93EF
:102A3000CF930F92CDB7DEB78983A5E5B0E0E5E58A
:102A4000F0E08081282F2F788981882F90E082956F
:102A50009295907F9827807F9827822B8C930F9058
:102A6000CF91DF910895DF93CF93CDB7DEB78895EF
:102A7000CF91DF910895DF93CF93CDB7DEB70E945A
:102A80004415CF91DF910895DF93CF93CDB7DEB793
:102A9000AFE5B0E0EFE5F0E0808180688C93CF9106
:102AA000DF910895DF93CF93CDB7DEB7AFE5B0E008
:102AB000EFE5F0E080818F778C93CF91DF910895DF
:102AC000DF93CF93CDB7DEB72A970FB6F894DEBF6A
:102AD0000FBECDBF89836A838981282F30E03A8772
:102AE000298789859A858130910509F477C02985E0
:102AF0003A852230310509F4DDC089859A85009731
:102B000009F008C183E062E040E00E94A91783E079
:102B100062E041E00E94D3188A81282F30E0388794
:102B20002F838F8198858130910521F12F81388500
:102B3000223031052CF48F819885009761F046C0D2
:102B40002F8138852230310521F18F81988583309E
:102B5000910571F13BC0A5E5B0E0E5E5F0E08081CD
:102B60008E7F8C93A5E5B0E0E5E5F0E080818D7F78
:102B70008C932CC0A5E5B0E0E5E5F0E080818160B4
:102B80008C93A5E5B0E0E5E5F0E080818D7F8C9346
:102B90001DC0A5E5B0E0E5E5F0E080818E7F8C9377
:102BA000A5E5B0E0E5E5F0E0808182608C930EC0A1
:102BB000A5E5B0E0E5E5F0E0808181608C93A5E5D6
:102BC000B0E0E5E5F0E0808182608C93ABE5B0E0B9
:102BD000EBE5F0E0808180648C939CC083E063E04F
:102BE00040E00E94A91783E063E041E00E94D3180F
:102BF0008A81282F30E03E832D838D819E81813014
:102C0000910521F12D813E81223031052CF48D81F9
:102C10009E81009761F046C02D813E8122303105B2
:102C200021F18D819E818330910571F13BC0A5E535
:102C3000B0E0E5E5F0E080818B7F8C93A5E5B0E026
:102C4000E5E5F0E08081877F8C932CC0A5E5B0E0BE
:102C5000E5E5F0E0808184608C93A5E5B0E0E5E5F2
:102C6000F0E08081877F8C931DC0A5E5B0E0E5E5AD
:102C7000F0E080818B7F8C93A5E5B0E0E5E5F0E0A6
:102C8000808188608C930EC0A5E5B0E0E5E5F0E0BA
:102C9000808184608C93A5E5B0E0E5E5F0E080817B
:102CA00088608C93ABE5B0E0EBE5F0E08081806874
:102CB0008C9330C081E062E040E00E94A91781E07F
:102CC00062E041E00E94D3188A81282F30E03C83E3
:102CD0002B838B819C818230910531F02B813C814B
:102CE0002330310549F00FC0A4E5B0E0E4E5F0E0A1
:102CF00080818F7B8C9307C0A4E5B0E0E4E5F0E031
:102D0000808180648C93ABE5B0E0EBE5F0E08081FE
:102D100080628C932A960FB6F894DEBF0FBECDBFAB
:102D2000CF91DF910895DF93CF9300D00F92CDB76D
:102D3000DEB789838981282F30E03B832A838A810B
:102D40009B8181309105A9F02A813B812230310598
:102D5000E1F08A819B81009719F5ABE5B0E0EBE5E6
:102D6000F0E080818F7B8C931092E9011092E80152
:102D700017C0ABE5B0E0EBE5F0E080818F778C9396
:102D80001092EB011092EA010BC0ABE5B0E0EBE56D
:102D9000F0E080818F7D8C931092ED011092EC0118
:102DA0000F900F900F90CF91DF910895DF93CF9305
:102DB00000D00F92CDB7DEB79A8389836B838B8166
:102DC000882F90E0880F991FFC01E851FE4F898100
:102DD0009A81918380830F900F900F90CF91DF9114
:102DE00008951F920F920FB60F9211242F933F93C5
:102DF0004F935F936F937F938F939F93AF93BF9303
:102E0000EF93FF93DF93CF93CDB7DEB78091E801C7
:102E10009091E901009729F0E091E801F091E90132
:102E20000995CF91DF91FF91EF91BF91AF919F9164
:102E30008F917F916F915F914F913F912F910F9063
:102E40000FBE0F901F9018951F920F920FB60F9202
:102E500011242F933F934F935F936F937F938F939F
:102E60009F93AF93BF93EF93FF93DF93CF93CDB730
:102E7000DEB78091EA019091EB01009729F0E09193
:102E8000EA01F091EB010995CF91DF91FF91EF916C
:102E9000BF91AF919F918F917F916F915F914F9172
:102EA0003F912F910F900FBE0F901F9018951F927A
:102EB0000F920FB60F9211242F933F934F935F936E
:102EC0006F937F938F939F93AF93BF93EF93FF93F2
:102ED000DF93CF93CDB7DEB78091EC019091ED01F8
:102EE000009729F0E091EC01F091ED010995CF9167
:102EF000DF91FF91EF91BF91AF919F918F917F9162
:102F00006F915F914F913F912F910F900FBE0F9056
:102F10001F901895DF93CF93CDB7DEB7EAE3F0E0CB
:102F20001082EBE3F0E01082E7E3F0E01082E8E3E8
:102F3000F0E01082E4E3F0E01082E5E3F0E01082DC
:102F4000E1E3F0E01082E2E3F0E01082CF91DF9164
:102F50000895DF93CF93CDB7DEB72E970FB6F894D1
:102F6000DEBF0FBECDBF8A836B834C8381E0898334
:102F70008A81843008F00CC18B81883008F008C148
:102F80008C81813021F08C81882309F001C18A81F4
:102F9000282F30E03E872D878D859E8581309105D5
:102FA00009F44FC02D853E85223031052CF48D85E6
:102FB0009E85009771F0EDC02D853E85223031054C
:102FC00009F477C08D859E858330910509F4A9C0E9
:102FD000E0C08C81282F30E03C872B878B859C8537
:102FE0000097D1F02B853C852130310509F0D1C007
:102FF000AAE3B0E0EAE3F0E08081482F8B81282F3C
:1030000030E081E090E0022E02C0880F991F0A9400
:10301000E2F7842B8C93BDC0AAE3B0E0EAE3F0E0D2
:103020008081482F8B81282F30E081E090E0022EB4
:1030300002C0880F991F0A94E2F7809584238C932D
:10304000A8C08C81282F30E03A87298789859A8506
:103050000097D1F029853A852130310509F099C0D2
:10306000A7E3B0E0E7E3F0E08081482F8B81282FD1
:1030700030E081E090E0022E02C0880F991F0A9490
:10308000E2F7842B8C9385C0A7E3B0E0E7E3F0E0A0
:103090008081482F8B81282F30E081E090E0022E44
:1030A00002C0880F991F0A94E2F7809584238C93BD
:1030B00070C08C81282F30E038872F838F819885CE
:1030C0000097D1F02F8138852130310509F061C09A
:1030D000A4E3B0E0E4E3F0E08081482F8B81282F67
:1030E00030E081E090E0022E02C0880F991F0A9420
:1030F000E2F7842B8C934DC0A4E3B0E0E4E3F0E06E
:103100008081482F8B81282F30E081E090E0022ED3
:1031100002C0880F991F0A94E2F7809584238C934C
:1031200038C08C81282F30E03E832D838D819E8195
:103130000097C9F02D813E812130310551F5A1E381
:10314000B0E0E1E3F0E08081482F8B81282F30E070
:1031500081E090E0022E02C0880F991F0A94E2F7E6
:10316000842B8C9316C0A1E3B0E0E1E3F0E0808112
:10317000482F8B81282F30E081E090E0022E02C0A2
:10318000880F991F0A94E2F7809584238C9301C0DD
:10319000198289812E960FB6F894DEBF0FBECDBF7F
:1031A000CF91DF910895DF93CF93CDB7DEB72E9700
:1031B0000FB6F894DEBF0FBECDBF8A836B834C83FE
:1031C00081E089838B81883008F008C18A81282FAB
:1031D00030E03E872D878D859E858130910509F4ED
:1031E00050C02D853E85223031052CF48D859E857D
:1031F000009771F0F1C02D853E852230310509F42C
:1032000079C08D859E858330910509F4ACC0E4C0FA
:103210008C81282F30E03C872B878B859C850097FD
:10322000C9F02B853C852130310549F5ABE3B0E091
:10323000EBE3F0E08081482F8B81282F30E081E0A4
:1032400090E0022E02C0880F991F0A94E2F7842BA7
:103250008C93C5C0ABE3B0E0EBE3F0E08081482F96
:103260008B81282F30E081E090E0022E02C0880F91
:10327000991F0A94E2F7809584238C93B0C0198239
:10328000AEC08C81282F30E03A87298789859A85BE
:103290000097C9F029853A852130310549F5A8E321
:1032A000B0E0E8E3F0E08081482F8B81282F30E008
:1032B00081E090E0022E02C0880F991F0A94E2F785
:1032C000842B8C938CC0A8E3B0E0E8E3F0E080812D
:1032D000482F8B81282F30E081E090E0022E02C041
:1032E000880F991F0A94E2F7809584238C9377C006
:1032F000198275C08C81282F30E038872F838F8109
:1033000098850097C9F02F8138852130310549F51E
:10331000A5E3B0E0E5E3F0E08081482F8B81282F22
:1033200030E081E090E0022E02C0880F991F0A94DD
:10333000E2F7842B8C9353C0A5E3B0E0E5E3F0E023
:103340008081482F8B81282F30E081E090E0022E91
:1033500002C0880F991F0A94E2F7809584238C930A
:103360003EC019823CC08C81282F30E03E832D83E3
:103370008D819E810097C9F02D813E8121303105DC
:1033800049F5A2E3B0E0E2E3F0E08081482F8B81D1
:10339000282F30E081E090E0022E02C0880F991FB4
:1033A0000A94E2F7842B8C931AC0A2E3B0E0E2E324
:1033B000F0E08081482F8B81282F30E081E090E081
:1033C000022E02C0880F991F0A94E2F78095842389
:1033D0008C9305C0198203C0198201C019828981AA
:1033E0002E960FB6F894DEBF0FBECDBFCF91DF9102
:1033F0000895DF93CF9300D000D00F92CDB7DEB702
:1034000089836A838981282F30E03D832C834C8116
:103410005D814130510549F18C819D81823091055A
:1034200034F42C813D812115310561F057C04C8168
:103430005D814230510561F18C819D818330910520
:10344000D1F14CC0E9E3F0E08081282F30E08A819F
:10345000882F90E0A90102C0559547958A95E2F71B
:10346000CA01582F51705B833BC0E6E3F0E08081D6
:10347000282F30E08A81882F90E0A90102C055955D
:1034800047958A95E2F7CA01582F51705B8328C08F
:10349000E3E3F0E08081282F30E08A81882F90E0FC
:1034A000A90102C0559547958A95E2F7CA01582FA0
:1034B00051705B8315C0E0E3F0E08081282F30E09D
:1034C0008A81882F90E0A90102C0559547958A9579
:1034D000E2F7CA01582F51705B8302C081E08B83F1
:1034E0008B810F900F900F900F900F90CF91DF91E5
:1034F0000895DF93CF93CDB7DEB72D970FB6F8942D
:10350000DEBF0FBECDBF8A836B8381E089838B8151
:10351000813021F08B81882309F07FC08A81282F98
:1035200030E03D872C878C859D858130910571F138
:103530002C853D85223031052CF48C859D850097A6
:1035400069F069C02C853D8522303105B1F18C854B
:103550009D858330910509F447C05DC08B81282F7C
:1035600030E03B872A878A859B85009759F02A851A
:103570003B852130310509F051C0EAE3F0E08FEFDF
:1035800080834CC0EAE3F0E0108248C08B81282F92
:1035900030E03987288788859985009751F02885FC
:1035A000398521303105D1F5E7E3F0E08FEF8083F5
:1035B00035C0E7E3F0E0108231C08B81282F30E086
:1035C0003F832E838E819F81009751F02E813F8112
:1035D0002130310519F5E4E3F0E08FEF80831EC060
:1035E000E4E3F0E010821AC08B81282F30E03D83A5
:1035F0002C838C819D81009751F02C813D8121305D
:10360000310561F4E1E3F0E08FEF808307C0E1E38F
:10361000F0E0108203C0198201C0198289812D96C1
:103620000FB6F894DEBF0FBECDBFCF91DF910895E6
:10363000DF93CF9300D000D00F92CDB7DEB78A834F
:103640006B8381E089838A81282F30E03D832C833E
:103650008C819D8181309105D1F02C813D8122307A
:1036600031052CF48C819D81009761F01FC02C8165
:103670003D812230310581F08C819D81833091051F
:1036800081F014C0EBE3F0E08B81808310C0E8E3AD
:10369000F0E08B8180830BC0E5E3F0E08B818083D9
:1036A00006C0E2E3F0E08B81808301C0198289814A
:1036B0000F900F900F900F900F90CF91DF91089582
:1036C000DF93CF9300D000D000D0CDB7DEB78A8390
:1036D0007C836B8381E089838B819C810097E9F1F6
:1036E0008A81282F30E03E832D838D819E81813019
:1036F0009105E1F02D813E81223031052CF48D8140
:103700009E81009761F027C02D813E8122303105D6
:10371000A1F08D819E8183309105B1F01CC0E9E359
:10372000F0E08081EB81FC81808318C0E6E3F0E06B
:103730008081EB81FC81808311C0E3E3F0E0808134
:10374000EB81FC8180830AC0E0E3F0E08081EB81C3
:10375000FC81808303C0198201C019828981269669
:103760000FB6F894DEBF0FBECDBFCF91DF910895A5
:10377000DF93CF9300D000D00F92CDB7DEB78A830E
:103780006B8381E089838B81883008F071C08A81E6
:10379000282F30E03D832C838C819D8181309105E1
:1037A00049F12C813D81223031052CF48C819D81A1
:1037B000009761F05BC02C813D812230310571F1B1
:1037C0008C819D8183309105E9F150C0ABE3B0E07D
:1037D000EBE3F0E08081482F8B81282F30E081E0FF
:1037E00090E0022E02C0880F991F0A94E2F7842706
:1037F0008C933FC0A8E3B0E0E8E3F0E08081482F7D
:103800008B81282F30E081E090E0022E02C0880FEB
:10381000991F0A94E2F784278C932BC0A5E3B0E0AC
:10382000E5E3F0E08081482F8B81282F30E081E0B4
:1038300090E0022E02C0880F991F0A94E2F78427B5
:103840008C9317C0A2E3B0E0E2E3F0E08081482F60
:103850008B81282F30E081E090E0022E02C0880F9B
:10386000991F0A94E2F784278C9303C0198201C040
:10387000198289810F900F900F900F900F90CF9128
:10388000DF910895DF93CF93CDB7DEB783E060E09B
:103890000E94791A83E060E00E94181BA6E2B0E063
:1038A000E6E2F0E08081887F86608C93A7E2B0E05A
:1038B000E7E2F0E080818F7380648C93A6E2B0E051
:1038C000E6E2F0E0808180688C93CF91DF910895EB
:1038D000DF93CF930F92CDB7DEB78983A6E2B0E036
:1038E000E6E2F0E08081982F987F8981892B8C9384
:1038F0000F90CF91DF910895DF93CF930F92CDB7C3
:10390000DEB78983A7E2B0E0E7E2F0E08081282F0C
:103910002F738981882F90E00024969587950794CE
:10392000969587950794982F802D822B8C930F90D6
:10393000CF91DF910895DF93CF930F92CDB7DEB78C
:103940008983A7E2B0E0E7E2F0E08081982F907EE3
:103950008981892B8C93A6E2B0E0E6E2F0E08081D9
:1039600080648C93E6E2F0E080818295869586956E
:103970008370882F90E081709070882399F70E945F
:10398000ED1C0F90CF91DF910895DF93CF930F92AD
:10399000CDB7DEB78983E6E2F0E080818295869537
:1039A00086958370882F90E081709070882389F4C9
:1039B000A7E2B0E0E7E2F0E08081982F907E898175
:1039C000892B8C93A6E2B0E0E6E2F0E0808180648F
:1039D0008C930F90CF91DF910895DF93CF9300D018
:1039E000CDB7DEB7E4E2F0E080818A83E5E2F0E083
:1039F000808189838981882F90E0382F22278A81CE
:103A0000882F90E0822B932B0F900F90CF91DF9116
:103A10000895DF93CF930F92CDB7DEB78983A0E5EA
:103A2000B0E0E0E5F0E08081282F2F718981882FB8
:103A300090E0880F991F82959295907F9827807FBC
:103A40009827822B8C930F90CF91DF910895DF936D
:103A5000CF93CDB7DEB7A6E2B0E0E6E2F0E080813A
:103A600080628C93CF91DF910895DF93CF93CDB790
:103A7000DEB7A6E2B0E0E6E2F0E080818F7D8C93D5
:103A8000CF91DF910895DF93CF9300D0CDB7DEB70C
:103A90009A83898389819A819093EF018093EE01C3
:103AA0000F900F90CF91DF910895DF93CF93CDB713
:103AB000DEB7A6E2B0E0E6E2F0E0808188608C93B9
:103AC000CF91DF910895DF93CF93CDB7DEB7A6E214
:103AD000B0E0E6E2F0E08081877F8C93CF91DF91C8
:103AE00008951F920F920FB60F9211242F933F93B8
:103AF0004F935F936F937F938F939F93AF93BF93F6
:103B0000EF93FF93DF93CF93CDB7DEB78091EE01B4
:103B10009091EF01009729F0E091EE01F091EF0113
:103B20000995CF91DF91FF91EF91BF91AF919F9157
:103B30008F917F916F915F914F913F912F910F9056
:103B40000FBE0F901F901895DF93CF93CDB7DEB7C0
:103B50002C970FB6F894DEBF0FBECDBF69877A876A
:103B60008B879C871D821E821F82188625C0198222
:103B70001A821B821C820CC0000089819A81AB8151
:103B8000BC810196A11DB11D89839A83AB83BC833F
:103B900089819A81AB81BC81813E9105A105B105E6
:103BA00058F38D819E81AF81B8850196A11DB11D0D
:103BB0008D839E83AF83B8872D813E814F81588549
:103BC00089859A85AB85BC85281739074A075B0725
:103BD00070F22C960FB6F894DEBF0FBECDBFCF911A
:103BE000DF910895DF93CF9300D000D000D0CDB700
:103BF000DEB78091FD01282F30E03E832D834D817B
:103C00005E814115510531F08D819E818130910594
:103C100099F089C00E94EF109093FF018093FE01FC
:103C200081E08093FD0180E00E942B1183E066E03B
:103C300041E00E94D31877C00E94EF109C01809150
:103C4000FE019091FF01A901481B590BCA019093F5
:103C5000F1018093F0011092FD0181E00E942B118F
:103C600083E066E040E00E94D3188091FC01282F99
:103C700030E03C832B838091F0019091F1019A8395
:103C8000898349815A814B3F510520F08AEF90E0AA
:103C90009A83898329813A81C901A0E0B0E0BC01FF
:103CA000CD010E940705DC01CB01BC01CD012DEB4C
:103CB00037E346E058E30E941F02DC01CB01BC0160
:103CC000CD0120E030E84BEA53E40E941F02DC0102
:103CD000CB01BC01CD0120E030E040E050E40E9487
:103CE0001903DC01CB01BC01CD0120E030E048EC40
:103CF00052E40E941F02DC01CB01BC01CD010E94F5
:103D00004900DC01CB01EB81FC81EE50FE4F80834A
:103D10008091FC018F5F8093FC018091FC018A30CF
:103D200011F41092FC0126960FB6F894DEBF0FBE78
:103D3000CDBFCF91DF910895DF93CF93CDB7DEB79D
:103D400068970FB6F894DEBF0FBECDBF82E060E08B
:103D500041E00E94D31880E090E0A0E7B1E48D8BB1
:103D60009E8BAF8BB88F6D897E898F89988D2BEA5A
:103D70003AEA4AE250E40E941F02DC01CB01898B3F
:103D80009A8BAB8BBC8B69897A898B899C8920E063
:103D900030E040E85FE30E94250488231CF481E0C2
:103DA000888B91C069897A898B899C8920E030E071
:103DB0004FE753E40E94C50318160CF07BC06D89D1
:103DC0007E898F89988D20E030E04AE754E40E9494
:103DD0001903DC01CB018C879D87AE87BF876C857B
:103DE0007D858E859F8520E030E04AEF54E40E9477
:103DF0001F02DC01CB0188879987AA87BB8768856A
:103E000079858A859B8520E030E040E85FE30E9469
:103E1000250488232CF481E090E09F838E833FC0AB
:103E2000688579858A859B8520E03FEF4FE757E4D9
:103E30000E94C50318164CF56C857D858E859F857F
:103E400020E030E040E251E40E941F02DC01CB019F
:103E5000BC01CD010E944900DC01CB019F838E8310
:103E60000FC088EC90E09D838C838C819D810197AD
:103E7000F1F79D838C838E819F8101979F838E8331
:103E80008E819F81009769F724C0688579858A852E
:103E90009B850E944900DC01CB019F838E838E812C
:103EA0009F819B838A838A819B810197F1F79B8302
:103EB0008A830FC069897A898B899C890E9449000D
:103EC000DC01CB01888B8889898389818A95F1F708
:103ED000898382E060E040E00E94D31868960FB6C4
:103EE000F894DEBF0FBECDBFCF91DF910895DF9371
:103EF000CF93CDB7DEB70E94DD0F82E060E041E0F6
:103F00000E94A91782E060E040E00E94D3188CE98B
:103F10009EE10E94ED1183E066E040E00E94A91757
:103F200083E066E040E00E94D31882EF9DE10E94AA
:103F3000B7110E940F1181E00E942B110E949B116A
:103F40000E944711CF91DF910895DF93CF93CDB7B2
:103F5000DEB727970FB6F894DEBF0FBECDBF1B822A
:103F600049C01A8236C08A81882F90E0FC01EE5049
:103F7000FE4F20818A81882F90E00196FC01EE504F
:103F8000FE4F8081821710F58A81882F90E001967C
:103F9000FC01EE50FE4F808189838A81882F90E05A
:103FA0009C012F5F3F4F8A81882F90E0FC01EE50EB
:103FB000FE4F8081F901EE50FE4F80838A81882F69
:103FC00090E0FC01EE50FE4F898180838A818F5FF3
:103FD0008A838A81482F50E08B81282F30E089E046
:103FE00090E0821B930B481759070CF4BCCF8B81D0
:103FF0008F5F8B838B818A3008F4B3CF8091F60179
:10400000282F30E08091F701882F90E0820F931FD6
:10401000AA2797FDA095BA2FBC01CD010E94550497
:10402000DC01CB01BC01CD0120E030E040E050E4F8
:104030000E941903DC01CB01BC01CD0127960FB60C
:10404000F894DEBF0FBECDBFCF91DF910895DF930F
:10405000CF93CDB7DEB780E060E041E00E94A917C2
:1040600080E061E041E00E94A91780E062E041E069
:104070000E94A91780E063E041E00E94A91780E058
:1040800060E040E00E94D31880E061E040E00E94E0
:10409000D31880E062E040E00E94D31880E063E043
:1040A00040E00E94D318CF91DF910895DF93CF9322
:1040B000CDB7DEB764970FB6F894DEBF0FBECDBFA5
:1040C00089877B876A878985882331F08985813054
:1040D00019F081E08C8BB7C08A859B85CC01A0E06C
:1040E000B0E0072E7BE0880F991FAA1FBB1F7A95AF
:1040F000D1F7702D20EA35E040E050E0BC01CD0161
:104100000E942930DA01C9018D839E83AF83B8876D
:1041100019821A821B821C8287C08985882311F02C
:104120001B8A02C083E08B8B80E06B8941E00E9498
:10413000D3186AE070E080E090E00E94A41D8985B9
:10414000882311F01A8A02C083E08A8B80E06A8992
:1041500040E00E94D3188985882319F081E0898B7B
:1041600002C082E0898B80E0698941E00E94D31817
:104170006AE070E080E090E00E94A41D89858823B9
:1041800019F081E0888B02C082E0888B80E068892A
:1041900040E00E94D3188985882319F082E08F8738
:1041A00002C081E08F8780E06F8541E00E94D318D4
:1041B0006AE070E080E090E00E94A41D8985882379
:1041C00019F082E08E8702C081E08E8780E06E85E4
:1041D00040E00E94D3188985882319F083E08D87F9
:1041E00001C01D8680E06D8541E00E94D3186AE021
:1041F00070E080E090E00E94A41D8985882319F07A
:1042000083E08C8701C01C8680E06C8540E00E94C2
:10421000D31889819A81AB81BC810196A11DB11D02
:1042200089839A83AB83BC8329813A814B815C81EA
:104230008D819E81AF81B885281739074A075B07B2
:1042400008F46BCF1C8A8C8964960FB6F894DEBF95
:104250000FBECDBFCF91DF910895DF93CF93CDB740
:10426000DEB766970FB6F894DEBF0FBECDBF898765
:104270004A875B876C877D878985882331F08985AC
:10428000813019F081E08E8BABC08A859B85AC852F
:10429000BD85B695A79597958795B695A79597955A
:1042A00087958D839E83AF83B88719821A821B827C
:1042B0001C8287C08985882311F01D8A02C083E093
:1042C0008D8B80E06D8941E00E94D3186AE070E038
:1042D00080E090E00E94A41D8985882311F01C8A4B
:1042E00002C083E08C8B80E06C8940E00E94D31890
:1042F0008985882319F081E08B8B02C082E08B8B4B
:1043000080E06B8941E00E94D3186AE070E080E0B1
:1043100090E00E94A41D8985882319F081E08A8B92
:1043200002C082E08A8B80E06A8940E00E94D31854
:104330008985882319F082E0898B02C081E0898B0E
:1043400080E0698941E00E94D3186AE070E080E073
:1043500090E00E94A41D8985882319F082E0888B53
:1043600002C081E0888B80E0688940E00E94D31819
:104370008985882319F083E08F8701C01F8680E03C
:104380006F8541E00E94D3186AE070E080E090E021
:104390000E94A41D8985882319F083E08E8701C0BF
:1043A0001E8680E06E8540E00E94D31889819A8144
:1043B000AB81BC810196A11DB11D89839A83AB831A
:1043C000BC8329813A814B815C818D819E81AF8143
:1043D000B885281739074A075B0708F46BCF1E8A90
:1043E0008E8966960FB6F894DEBF0FBECDBFCF9113
:1043F000DF910895DF93CF93CDB7DEB780E061E022
:104400000E94791A80E061E00E94181BCF91DF9131
:104410000895DF93CF9300D000D0CDB7DEB78A8365
:104420008A818A3018F081E08C8328C0198222C0EA
:104430008A81282F30E08981482F50E0C901880FF8
:10444000991F880F991F880F991F821B930B840F48
:10445000951FFC01E859FE4F80811B82882311F4CF
:1044600081E08B8380E069814B810E94D318898130
:104470008F5F898389818730D8F21C828C810F906D
:104480000F900F900F90CF91DF910895DF93CF930E
:10449000CDB7DEB780E067E041E00E94D31880E04E
:1044A000CF91DF910895DF93CF93CDB7DEB780E052
:1044B00067E040E00E94D31880E0CF91DF9108953B
:1044C000DF93CF93CDB7DEB70E94DD0F80E062E0CF
:1044D0000E94F40F8AE50E947022CF91DF91089527
:1044E000DF93CF9300D00F92CDB7DEB78B831A82C4
:1044F0008B81853B10F081E08A838B81882F90E04F
:10450000AA2797FDA095BA2FBC01CD010E945504A2
:10451000DC01CB01BC01CD0129EE33E94EEB5EE3BA
:104520000E941F02DC01CB01BC01CD0120E030E084
:1045300040E451E40E94F201DC01CB01BC01CD0159
:104540000E944900DC01CB0189838981882F90E09A
:104550000E9473108A810F900F900F90CF91DF917E
:104560000895DF93CF93CDB7DEB782E061E00E947C
:10457000791A81E060E041E00E94A91781E061E0E2
:1045800041E00E94A91781E062E041E00E94A91782
:1045900064E670E080E090E00E94A41D8CE30E943D
:1045A000F82262E070E080E090E00E94A41D8CE3BD
:1045B0000E94F82262E070E080E090E00E94A41D7A
:1045C0008FE00E94F82262E070E080E090E00E94BC
:1045D000A41D81E00E94F82262E070E080E090E09B
:1045E0000E94A41D86E00E94F822CF91DF910895D9
:1045F000DF93CF930F92CDB7DEB7898381E060E080
:1046000040E00E94D31881E061E040E00E94D318AE
:1046100081E062E041E00E94D31882E069810E945B
:10462000181B62E070E080E090E00E94A41D81E031
:1046300062E040E00E94D3180F90CF91DF9108957F
:10464000DF93CF930F92CDB7DEB7898381E060E02F
:1046500041E00E94D31881E061E040E00E94D3185D
:1046600081E062E041E00E94D31882E069810E940B
:10467000181B61E070E080E090E00E94A41D81E0E2
:1046800062E040E00E94D3180F90CF91DF9108952F
:10469000DF93CF9300D0CDB7DEB789836A8389815A
:1046A000882F90E00296002496958795079496951A
:1046B00087950794982F802D982F8A81890F0E94C3
:1046C000F8220F900F90CF91DF910895DF93CF9351
:1046D000CDB7DEB727970FB6F894DEBF0FBECDBFBC
:1046E0009F838E831A821B821C821D82198250C076
:1046F0008A819B81AC81BD810097A105B105B1F094
:104700008A819B81AC81BD818F709070A070B070E8
:104710000097A105B10551F48981882339F481E01E
:104720008983898160E00E9448231DC08A819B8122
:10473000AC81BD818F709070A070B0700097A105A2
:10474000B10589F48981813071F460EA7FE080E00D
:1047500090E00E94A41D198281E00E94F8228981C4
:1047600060E00E9448232A813B818E819F81FC0169
:10477000E20FF31F80810E9420238A819B81AC81FC
:10478000BD810196A11DB11D8A839B83AC83BD832E
:104790002A813B818E819F81FC01E20FF31F808182
:1047A000882309F0A5CF27960FB6F894DEBF0FBE79
:1047B000CDBFCF91DF910895DF93CF93CDB7DEB713
:1047C0008CE10E94F822CF91DF910895DF93CF937F
:1047D000CDB7DEB788E10E94F822CF91DF9108952E
:1047E000EF92FF920F931F93DF93CF93CDB7DEB776
:1047F00029970FB6F894DEBF0FBECDBF6E837F83BF
:10480000888799878E819F81A885B9850097A105A2
:10481000B10521F480E30E94202374C01D82198217
:104820001A821B821C823BC08E819F81A885B9851C
:104830002AE030E040E050E0BC01CD010E94293088
:10484000DC01CB017C018D0189819A81AB81BC8126
:104850002AE030E040E050E0BC01CD010E940A3087
:10486000DC01CB018E0D9F1DA01FB11F89839A8390
:10487000AB83BC838E819F81A885B9852AE030E017
:1048800040E050E0BC01CD010E942930DA01C901AD
:104890008E839F83A887B9878D818F5F8D838E815B
:1048A0009F81A885B9850097A105B10509F0BCCF06
:1048B00026C089819A81AB81BC812AE030E040E04A
:1048C00050E0BC01CD010E942930DC01CB01805DAC
:1048D0000E94202389819A81AB81BC812AE030E04B
:1048E00040E050E0BC01CD010E942930DA01C9014D
:1048F00089839A83AB83BC838D8181508D838D8125
:104900008823B9F629960FB6F894DEBF0FBECDBF47
:10491000CF91DF911F910F91FF90EF900895EF924B
:10492000FF920F931F93DF93CF93CDB7DEB72A97F4
:104930000FB6F894DEBF0FBECDBF6F83788789872F
:104940009A871E821A821B821C821D823BC08F8125
:104950009885A985BA852AE030E040E050E0BC01A6
:10496000CD010E942930DC01CB017C018D018A81BF
:104970009B81AC81BD812AE030E040E050E0BC0189
:10498000CD010E940A30DC01CB018E0D9F1DA01FBE
:10499000B11F8A839B83AC83BD838F819885A98552
:1049A000BA852AE030E040E050E0BC01CD010E9431
:1049B0002930DA01C9018F839887A987BA878E8148
:1049C0008F5F8E838F819885A985BA850097A10511
:1049D000B10509F0BCCF83E09E81891B898306C0A5
:1049E00080E30E94202389818150898389818823E3
:1049F000B9F726C08A819B81AC81BD812AE030E075
:104A000040E050E0BC01CD010E942930DC01CB0127
:104A1000805D0E9420238A819B81AC81BD812AE038
:104A200030E040E050E0BC01CD010E942930DA01C5
:104A3000C9018A839B83AC83BD838E8181508E8321
:104A40008E818823B9F62A960FB6F894DEBF0FBE82
:104A5000CDBFCF91DF911F910F91FF90EF900895FF
:104A6000DF93CF93CDB7DEB72C970FB6F894DEBFA8
:104A70000FBECDBF69877A878B879C8769857A85CA
:104A80008B859C8520E030E040E050E00E942504CA
:104A9000882364F489859A85AB85BC85B05889875D
:104AA0009A87AB87BC878DE20E94202369857A852F
:104AB0008B859C850E94B304DC01CB018D839E8392
:104AC000AF83B8876D817E818F8198850E940705AD
:104AD0009B01AC0169857A858B859C850E94C1010B
:104AE000DC01CB0189839A83AB83BC838D819E815A
:104AF000AF81B885BC01CD010E94F02369817A8124
:104B00008B819C812FE632E143E85AE30E94C50382
:104B10001816CCF48EE20E94202369817A818B8161
:104B20009C8120E030E04AE754E40E941F02DC014F
:104B3000CB01BC01CD010E944900DC01CB01BC01CD
:104B4000CD010E948F242C960FB6F894DEBF0FBEC5
:104B5000CDBFCF91DF910895DF93CF93CDB7DEB76F
:104B60008EEA91E0909308028093070281E060E072
:104B700041E00E94A91781E061E041E00E94A9178D
:104B800081E062E041E00E94A91781E063E041E03A
:104B90000E94A91781E060E041E00E94D31881E003
:104BA00061E041E00E94D31881E062E041E00E94B0
:104BB000D31881E063E041E00E94D31881E064E013
:104BC00040E00E94A91781E065E040E00E94A9173B
:104BD00081E066E040E00E94A91781E067E040E0E4
:104BE0000E94A91781E064E041E00E94D31881E0AF
:104BF00065E041E00E94D31881E066E041E00E9458
:104C0000D31881E067E041E00E94D318CF91DF9193
:104C10000895DF93CF93CDB7DEB72C970FB6F894F6
:104C2000DEBF0FBECDBF1D8281E08E8382E08F8309
:104C300083E0888784E0898785E08A8786E08B87A0
:104C400087E08C871C821B8274C08B81282F30E008
:104C5000CE010596FC01E20FF31F908181E0692FE0
:104C600040E00E94D3181A824FC08A81282F30E07A
:104C7000CE010996FC01E20FF31F908181E0692FBC
:104C80000E94F919898364E170E080E090E00E945D
:104C9000A41D8A81282F30E0CE010996FC01E20F85
:104CA000F31F908181E0692F0E94F919898389811E
:104CB000882339F520910702309108028B81882FD3
:104CC00090E0880F991F880F991F280F391F8A813C
:104CD000882F90E0F901E80FF91F80818C830EC0C6
:104CE0008A81282F30E0CE010996FC01E20FF31FE4
:104CF000908181E0692F0E94F91989838981882335
:104D000079F38A818F5F8A838A81843008F4ADCFFA
:104D10008B81282F30E0CE010596FC01E20FF31FB6
:104D2000908181E0692F41E00E94D3188B818F5FD1
:104D30008B838B81843008F488CF8C812C960FB6BE
:104D4000F894DEBF0FBECDBFCF91DF910895DF9302
:104D5000CF93CDB7DEB72C970FB6F894DEBF0FBE5A
:104D6000CDBF1D8281E08E8382E08F8383E08887C0
:104D700084E0898785E08A8786E08B8787E08C8757
:104D80001C821B828DC08B81282F30E0CE010596BE
:104D9000FC01E20FF31F908181E0692F40E00E9447
:104DA000D3181A8268C08A81282F30E0CE01099674
:104DB000FC01E20FF31F908181E0692F0E94F91935
:104DC000898364E170E080E090E00E94A41D8A8104
:104DD000282F30E0CE010996FC01E20FF31F9081ED
:104DE00081E0692F0E94F91989838981882309F05C
:104DF0003FC020910702309108028B81882F90E0FC
:104E0000880F991F880F991F280F391F8A81882FB3
:104E100090E0F901E80FF91F80818C830EC08A8130
:104E2000282F30E0CE010996FC01E20FF31F90819C
:104E300081E0692F0E94F91989838981882379F398
:104E40008B81282F30E0CE010596FC01E20FF31F85
:104E5000908181E0692F41E00E94D3188C812C96CB
:104E60000FB6F894DEBF0FBECDBFCF91DF9108958E
:104E70008A818F5F8A838A81843008F494CF8B8102
:104E8000282F30E0CE010596FC01E20FF31F908140
:104E900081E0692F41E00E94D3188B818F5F8B8363
:104EA0008B81843008F46FCF5CCFDF93CF930F9268
:104EB000CDB7DEB789838EEA91E0909308028093A4
:104EC00007020F90CF91DF910895DF93CF93CDB775
:104ED000DEB7809107029091080221E08E3A920796
:104EE00039F48EEB91E0909308028093070206C09C
:104EF0008EEA91E09093080280930702CF91DF91B0
:104F00000895DF93CF930F92CDB7DEB789830F90CB
:104F1000CF91DF910895DF93CF930F92CDB7DEB796
:104F20008983898162E00E9460150F90CF91DF91A3
:104F30000895DF93CF930F92CDB7DEB78983898130
:104F40000E9493160F90CF91DF910895DF93CF9336
:104F500000D00F92CDB7DEB79A8389836B838981A6
:104F60009A816B810E94D6160F900F900F90CF916F
:104F7000DF910895DF93CF93CDB7DEB728970FB6B3
:104F8000F894DEBF0FBECDBF9B838A8381E1898306
:104F9000EA81FB8180818F3F19F021E12887B9C028
:104FA0008A819B81FC0131968081813019F031E149
:104FB0003887AFC08A819B81FC0132968081813025
:104FC00019F081E18887A5C08A819B81FC01339615
:104FD0008081813019F091E198879BC08A819B8103
:104FE000FC0134968081823019F021E1288791C03C
:104FF0008A819B81FC0137968081882319F031E1F9
:10500000388787C08A819B81FC0135968081282F53
:1050100030E03F832E838E819F818430910509F497
:1050200068C02E813F81253031058CF48E819F81AF
:105030008130910509F458C02E813F81223031051D
:1050400009F454C08E819F810097A1F05EC02E812B
:105050003F812031310509F452C08E819F81803219
:10506000910509F44FC02E813F812830310509F4A4
:1050700043C04BC08A819B81FC0136968081282FDA
:1050800030E03D832C838C819D818230910501F13C
:105090002C813D812330310554F48C819D81009712
:1050A00089F02C813D812130310579F01AC08C8145
:1050B0009D818430910579F02C813D812830310526
:1050C00069F00FC086E0898322C087E089831FC012
:1050D00088E089831CC08AE0898319C089E08983BC
:1050E00016C081E1898313C0198211C081E08983D0
:1050F0000EC082E089830BC083E0898308C084E00E
:10510000898305C085E0898302C081E18983398173
:105110003887888528960FB6F894DEBF0FBECDBFBE
:10512000CF91DF910895DF93CF93CDB7DEB7279767
:105130000FB6F894DEBF0FBECDBF9C838B8381E199
:105140008A83EB81FC8180818F3F19F021E12F83DD
:10515000BBC08B819C81FC0131968081813019F02C
:1051600031E13F83B1C08B819C81FC01329680810B
:10517000823019F081E18F83A7C08B819C81FC0173
:1051800033968081813019F091E19F839DC08B819E
:105190009C81FC0134968081823019F021E12F83BB
:1051A00093C08B819C81FC0137968081882319F004
:1051B00031E13F8389C08B819C81FC0135968081E0
:1051C000282F30E03E832D838D819E818430910590
:1051D00009F46AC02D813E81253031058CF48D8122
:1051E0009E818130910509F45AC02D813E81223083
:1051F000310509F456C08D819E810097A1F060C0F1
:105200002D813E812031310509F454C08D819E816C
:105210008032910509F451C02D813E81283031053D
:1052200009F445C04DC08B819C81FC01369680817C
:1052300089838981882331F089818E3118F43CE09B
:105240003F8342C089818F3130F08981813418F4E5
:105250008BE08F8339C08981823430F089818F352A
:1052600018F49DE09F8330C08981803630F08981B9
:105270008D3718F420E12F8327C089818E3730F0D5
:105280008981803A18F43EE03F831EC08981813ACB
:10529000C8F089818E3BB0F48FE08F8315C01A82ED
:1052A00011C081E08A830EC082E08A830BC083E054
:1052B0008A8308C084E08A8305C085E08A8302C0AF
:1052C00081E18A839A819F838F8127960FB6F89414
:1052D000DEBF0FBECDBFCF91DF910895DF93CF9397
:1052E000CDB7DEB762970FB6F894DEBF0FBECDBF65
:1052F000998B888B6A8B88899989892F99278065F2
:105300008F870E94CB0C8F850E94180D88890E9480
:10531000880D8A890E94880D0E94E00D80E090E04F
:10532000A0E2B1E48B879C87AD87BE876B857C85C7
:105330008D859E8520E030E04AEF54E40E941F02F4
:10534000DC01CB018F839887A987BA876F81788525
:1053500089859A8520E030E040E85FE30E942504DB
:1053600088232CF481E090E09E838D833FC06F8181
:10537000788589859A8520E03FEF4FE757E40E94C2
:10538000C50318164CF56B857C858D859E8520E0C0
:1053900030E040E251E40E941F02DC01CB01BC017D
:1053A000CD010E944900DC01CB019E838D830FC09B
:1053B00088EC90E09C838B838B819C810197F1F733
:1053C0009C838B838D819E8101979E838D838D81AC
:1053D0009E81009769F714C06F81788589859A85C9
:1053E0000E944900DC01CB019E838D838D819E81CB
:1053F0009A83898389819A810197F1F79A838983B6
:1054000062960FB6F894DEBF0FBECDBFCF91DF918D
:105410000895DF93CF9300D000D00F92CDB7DEB7C1
:105420009D838C838C819D81892F992780658983B9
:105430000E94CB0C89810E94180D8C810E94880DDE
:105440000E94F50C89810E94500DCE0102960E94A7
:10545000B10DCE0103960E94F50D0E94E00D8A81E8
:105460000F900F900F900F900F90CF91DF910895B4
:10547000DF93CF93CDB7DEB70E94320E82E00E9459
:10548000C60E81E063E041E00E94A9170E94CB12A2
:1054900082E00E945F1383E067E041E00E94A91769
:1054A00080E060E041E00E94A91780E061E041E017
:1054B0000E94A91780E062E041E00E94A91780E005
:1054C00063E041E00E94A91780E060E040E00E94B4
:1054D000D31880E061E040E00E94D31880E062E0F1
:1054E00040E00E94D31880E063E040E00E94D318BF
:1054F000CF91DF910895DF93CF9300D000D00F922A
:10550000CDB7DEB789837B836A838981282F30E01A
:105510003D832C838C819D810097D1F02C813D812E
:105520002130310549F580E060E041E00E94D31868
:1055300080E062E041E00E94D31880E061E040E05A
:105540000E94D31880E063E040E00E94D31814C0AA
:1055500080E060E040E00E94D31880E062E040E03C
:105560000E94D31880E061E041E00E94D31880E0FF
:1055700063E041E00E94D3188A819B81CC01A0E0C6
:10558000B0E0BC01CD010E940705DC01CB01BC01EC
:10559000CD0120E030E048EC52E40E941903DC0128
:1055A000CB01BC01CD0120E030E04FE753E40E9485
:1055B0001F02DC01CB01BC01CD010E944900DC01CE
:1055C000CB010E94B80E8A819B81CC01A0E0B0E0A3
:1055D000BC01CD010E940705DC01CB01BC01CD015E
:1055E00020E030E048EC52E40E941903DC01CB01DA
:1055F000BC01CD0120E030E04FE753E40E941F02E0
:10560000DC01CB01BC01CD010E944900DC01CB01D2
:105610000E9451130F900F900F900F900F90CF9109
:10562000DF910895DF93CF93CDB7DEB780E060E0E0
:1056300040E00E94D31880E062E040E00E94D3186E
:1056400080E061E040E00E94D31880E063E040E049
:105650000E94D318CF91DF910895DF93CF930F92DB
:10566000CDB7DEB70E944F0B898320910102822FB4
:1056700090E0FC01E75FFD4F89818083822F8F5F7F
:1056800080930102809109028F3F11F01092010274
:1056900080910102883040F089E092E00E949328D6
:1056A0008093CE01109201028091CE01813091F45D
:1056B0008091CF01813071F081E08093CF018091A2
:1056C0000002813019F4109200020FC081E0809333
:1056D00000020BC08091CE01813039F08091CF0162
:1056E000813019F486E08093CF010F90CF91DF9144
:1056F0000895DF93CF93CDB7DEB70E94382A0E947A
:1057000060220E94771F0E94C2078DE29BE20E94E6
:10571000AD0B0E94590B0E943B15CF91DF9108956C
:10572000DF93CF93CDB7DEB70E94792B8091000233
:10573000813019F40E94E72EF9CF0E94AF2BF6CFEB
:10574000DF93CF93CDB7DEB780E00E94992781E049
:105750000E9499270E941C0FCF91DF910895DF933B
:10576000CF9300D0CDB7DEB70E94A02B809100026E
:10577000882309F09EC08091CE01282F30E03A8323
:10578000298389819A818D30910509F457C0298137
:105790003A812E3031055CF489819A818B309105F4
:1057A000C9F029813A812C30310571F17CC08981A1
:1057B0009A818F30910509F464C029813A812F3094
:1057C00031050CF455C089819A818031910509F425
:1057D00061C069C00E94A51FDC01CB01BC01CD01E5
:1057E00020E030E040EA51E40E94250488231CF4C4
:1057F0000E94122BBBCF81E066E970E00E947B2AF9
:105800008AE50E947022B2CF0E94A51FDC01CB0165
:10581000BC01CD0120E030E040EA51E40E942504C3
:1058200088231CF40E94122BA1CF81E066E970E06E
:105830000E947B2A84EB0E94702298CF0E94A51FB1
:10584000DC01CB01BC01CD0120E030E040EA51E4B5
:105850000E94250488231CF40E94122B87CF81E02C
:1058600066E970E00E947B2A80E00E9470227ECF71
:1058700080E066E970E00E947B2A8AE50E9470223F
:1058800075CF80E066E970E00E947B2A84EB0E947D
:1058900070226CCF80E066E970E00E947B2A80E095
:1058A0000E94702263CF0E94122B8AE50E94702210
:1058B0005DCF0F900F90CF91DF910895DF93CF933D
:1058C000CDB7DEB7809103028F5F80930302809192
:1058D0000302843021F4109203020E94EA2CCF913B
:1058E000DF910895DF93CF93CDB7DEB70E94440ECA
:1058F0008EE59CE20E94460F0E940E0FCF91DF9131
:105900000895DF93CF9300D000D000D0CDB7DEB79D
:105910009A8389837C836B835E834D8380910202AB
:10592000282F30E0C901880F991F880F991F880F11
:10593000991F821B930BFC01EF5EFD4F89819A81B9
:105940009183808380910202282F30E0C901880F63
:10595000991F880F991F880F991F821B930BFC01B9
:10596000ED5EFD4F8B819C8191838083809102024B
:10597000282F30E0C901880F991F880F991F880FC1
:10598000991F821B930BFC01EB5EFD4F81E080832E
:1059900080910202282F30E0C901880F991F880FDB
:1059A000991F880F991F821B930BFC01EA5EFD4F24
:1059B0008D819E8191838083809102028F5F80938D
:1059C000020226960FB6F894DEBF0FBECDBFCF9170
:1059D000DF910895DF93CF930F92CDB7DEB7198291
:1059E000A4C08981282F30E0C901880F991F880F32
:1059F000991F880F991F821B930BFC01ED5EFD4FD1
:105A000080819181009709F06BC08981482F50E017
:105A10008981282F30E0C901880F991F880F991FAD
:105A2000880F991F821B930BFC01EF5EFD4F2081B5
:105A30003181CA01880F991F880F991F880F991FFC
:105A4000841B950BFC01ED5EFD4F31832083898122
:105A5000282F30E0C901880F991F880F991F880FE0
:105A6000991F821B930BFC01EB5EFD4F80818430FC
:105A700009F458C08981282F30E0C901880F991F87
:105A8000880F991F880F991F821B930BFC01EB5EF7
:105A9000FD4F82E080838981282F30E0C901880F83
:105AA000991F880F991F880F991F821B930BFC0168
:105AB000EA5EFD4F0190F081E02D09958981282F44
:105AC00030E0C901880F991F880F991F880F991F0F
:105AD000821B930BFC01EB5EFD4F81E0808322C0B3
